{
  "contractName": "TokenTimelock",
  "abi": [
    {
      "constant": true,
      "inputs": [
        {
          "name": "_beneficiary",
          "type": "address"
        }
      ],
      "name": "releasableAmount",
      "outputs": [
        {
          "name": "",
          "type": "uint256"
        }
      ],
      "payable": false,
      "stateMutability": "view",
      "type": "function"
    },
    {
      "constant": false,
      "inputs": [
        {
          "name": "_beneficiary",
          "type": "address"
        }
      ],
      "name": "revokeBeneficiary",
      "outputs": [],
      "payable": false,
      "stateMutability": "nonpayable",
      "type": "function"
    },
    {
      "constant": false,
      "inputs": [],
      "name": "release",
      "outputs": [],
      "payable": false,
      "stateMutability": "nonpayable",
      "type": "function"
    },
    {
      "constant": true,
      "inputs": [],
      "name": "owner",
      "outputs": [
        {
          "name": "",
          "type": "address"
        }
      ],
      "payable": false,
      "stateMutability": "view",
      "type": "function"
    },
    {
      "constant": true,
      "inputs": [
        {
          "name": "",
          "type": "address"
        }
      ],
      "name": "released",
      "outputs": [
        {
          "name": "",
          "type": "uint256"
        }
      ],
      "payable": false,
      "stateMutability": "view",
      "type": "function"
    },
    {
      "constant": true,
      "inputs": [],
      "name": "releaseTime",
      "outputs": [
        {
          "name": "",
          "type": "uint256"
        }
      ],
      "payable": false,
      "stateMutability": "view",
      "type": "function"
    },
    {
      "constant": true,
      "inputs": [
        {
          "name": "",
          "type": "address"
        }
      ],
      "name": "tokensVested",
      "outputs": [
        {
          "name": "",
          "type": "uint256"
        }
      ],
      "payable": false,
      "stateMutability": "view",
      "type": "function"
    },
    {
      "constant": true,
      "inputs": [
        {
          "name": "_beneficiary",
          "type": "address"
        }
      ],
      "name": "validBeneficiary",
      "outputs": [
        {
          "name": "",
          "type": "bool"
        }
      ],
      "payable": false,
      "stateMutability": "view",
      "type": "function"
    },
    {
      "constant": true,
      "inputs": [
        {
          "name": "",
          "type": "uint256"
        }
      ],
      "name": "beneficiaries",
      "outputs": [
        {
          "name": "",
          "type": "address"
        }
      ],
      "payable": false,
      "stateMutability": "view",
      "type": "function"
    },
    {
      "constant": false,
      "inputs": [
        {
          "name": "newOwner",
          "type": "address"
        }
      ],
      "name": "transferOwnership",
      "outputs": [],
      "payable": false,
      "stateMutability": "nonpayable",
      "type": "function"
    },
    {
      "constant": true,
      "inputs": [],
      "name": "token",
      "outputs": [
        {
          "name": "",
          "type": "address"
        }
      ],
      "payable": false,
      "stateMutability": "view",
      "type": "function"
    },
    {
      "inputs": [
        {
          "name": "_token",
          "type": "address"
        },
        {
          "name": "_beneficiaries",
          "type": "address[]"
        },
        {
          "name": "_tokensVested",
          "type": "uint256[]"
        },
        {
          "name": "_releaseTime",
          "type": "uint256"
        }
      ],
      "payable": false,
      "stateMutability": "nonpayable",
      "type": "constructor"
    },
    {
      "anonymous": false,
      "inputs": [
        {
          "indexed": true,
          "name": "previousOwner",
          "type": "address"
        },
        {
          "indexed": true,
          "name": "newOwner",
          "type": "address"
        }
      ],
      "name": "OwnershipTransferred",
      "type": "event"
    }
  ],
  "bytecode": "0x606060405234156200001057600080fd5b6040516200126f3803806200126f833981016040528080519060200190919080518201919060200180518201919060200180519060200190919050506000336000806101000a81548173ffffffffffffffffffffffffffffffffffffffff021916908373ffffffffffffffffffffffffffffffffffffffff16021790555042821115156200009d57600080fd5b60008573ffffffffffffffffffffffffffffffffffffffff1614151515620000c457600080fd5b82518451141515620000d557600080fd5b84600160006101000a81548173ffffffffffffffffffffffffffffffffffffffff021916908373ffffffffffffffffffffffffffffffffffffffff16021790555083600290805190602001906200012e92919062000202565b50600090505b6002805490508160ff161015620001f057828160ff168151811015156200015757fe5b906020019060200201516003600060028460ff168154811015156200017857fe5b906000526020600020900160009054906101000a900473ffffffffffffffffffffffffffffffffffffffff1673ffffffffffffffffffffffffffffffffffffffff1673ffffffffffffffffffffffffffffffffffffffff16815260200190815260200160002081905550808060010191505062000134565b816005819055505050505050620002d7565b8280548282559060005260206000209081019282156200027e579160200282015b828111156200027d5782518260006101000a81548173ffffffffffffffffffffffffffffffffffffffff021916908373ffffffffffffffffffffffffffffffffffffffff1602179055509160200191906001019062000223565b5b5090506200028d919062000291565b5090565b620002d491905b80821115620002d057600081816101000a81549073ffffffffffffffffffffffffffffffffffffffff02191690555060010162000298565b5090565b90565b610f8880620002e76000396000f3006060604052600436106100af576000357c0100000000000000000000000000000000000000000000000000000000900463ffffffff1680631726cbc8146100b457806346dd6fcd1461010157806386d1a69f1461013a5780638da5cb5b1461014f5780639852595c146101a4578063b91d4001146101f1578063e073520b1461021a578063e32d76de14610267578063efeb5e58146102b8578063f2fde38b1461031b578063fc0c546a14610354575b600080fd5b34156100bf57600080fd5b6100eb600480803573ffffffffffffffffffffffffffffffffffffffff169060200190919050506103a9565b6040518082815260200191505060405180910390f35b341561010c57600080fd5b610138600480803573ffffffffffffffffffffffffffffffffffffffff16906020019091905050610587565b005b341561014557600080fd5b61014d610a15565b005b341561015a57600080fd5b610162610bd4565b604051808273ffffffffffffffffffffffffffffffffffffffff1673ffffffffffffffffffffffffffffffffffffffff16815260200191505060405180910390f35b34156101af57600080fd5b6101db600480803573ffffffffffffffffffffffffffffffffffffffff16906020019091905050610bf9565b6040518082815260200191505060405180910390f35b34156101fc57600080fd5b610204610c11565b6040518082815260200191505060405180910390f35b341561022557600080fd5b610251600480803573ffffffffffffffffffffffffffffffffffffffff16906020019091905050610c17565b6040518082815260200191505060405180910390f35b341561027257600080fd5b61029e600480803573ffffffffffffffffffffffffffffffffffffffff16906020019091905050610c2f565b604051808215151515815260200191505060405180910390f35b34156102c357600080fd5b6102d96004808035906020019091905050610cff565b604051808273ffffffffffffffffffffffffffffffffffffffff1673ffffffffffffffffffffffffffffffffffffffff16815260200191505060405180910390f35b341561032657600080fd5b610352600480803573ffffffffffffffffffffffffffffffffffffffff16906020019091905050610d3e565b005b341561035f57600080fd5b610367610e93565b604051808273ffffffffffffffffffffffffffffffffffffffff1673ffffffffffffffffffffffffffffffffffffffff16815260200191505060405180910390f35b60008060008060008573ffffffffffffffffffffffffffffffffffffffff16141515156103d557600080fd5b60055442101515156103e657600080fd5b600160009054906101000a900473ffffffffffffffffffffffffffffffffffffffff1673ffffffffffffffffffffffffffffffffffffffff166370a08231306000604051602001526040518263ffffffff167c0100000000000000000000000000000000000000000000000000000000028152600401808273ffffffffffffffffffffffffffffffffffffffff1673ffffffffffffffffffffffffffffffffffffffff168152602001915050602060405180830381600087803b15156104ab57600080fd5b6102c65a03f115156104bc57600080fd5b505050604051805190509250600360008673ffffffffffffffffffffffffffffffffffffffff1673ffffffffffffffffffffffffffffffffffffffff168152602001908152602001600020549150600460008673ffffffffffffffffffffffffffffffffffffffff1673ffffffffffffffffffffffffffffffffffffffff168152602001908152602001600020549050826105608284610eb990919063ffffffff16565b1115151561056a57fe5b61057d8183610eb990919063ffffffff16565b9350505050919050565b60008060008060008060009054906101000a900473ffffffffffffffffffffffffffffffffffffffff1673ffffffffffffffffffffffffffffffffffffffff163373ffffffffffffffffffffffffffffffffffffffff161415156105ea57600080fd5b60008673ffffffffffffffffffffffffffffffffffffffff161415151561061057600080fd5b61061986610c2f565b151561062457600080fd5b600360008773ffffffffffffffffffffffffffffffffffffffff1673ffffffffffffffffffffffffffffffffffffffff168152602001908152602001600020549450600460008773ffffffffffffffffffffffffffffffffffffffff1673ffffffffffffffffffffffffffffffffffffffff1681526020019081526020016000205493506106bb8486610eb990919063ffffffff16565b92506000600360008873ffffffffffffffffffffffffffffffffffffffff1673ffffffffffffffffffffffffffffffffffffffff16815260200190815260200160002081905550600091505b6002805490508260ff16101561088f578573ffffffffffffffffffffffffffffffffffffffff1660028360ff1681548110151561074057fe5b906000526020600020900160009054906101000a900473ffffffffffffffffffffffffffffffffffffffff1673ffffffffffffffffffffffffffffffffffffffff16141561088257600260016002805490500381548110151561079f57fe5b906000526020600020900160009054906101000a900473ffffffffffffffffffffffffffffffffffffffff1660028360ff168154811015156107dd57fe5b906000526020600020900160006101000a81548173ffffffffffffffffffffffffffffffffffffffff021916908373ffffffffffffffffffffffffffffffffffffffff160217905550600260016002805490500381548110151561083d57fe5b906000526020600020900160006101000a81549073ffffffffffffffffffffffffffffffffffffffff021916905560028054809190600190036108809190610f0b565b505b8180600101925050610707565b600090505b6002805490508160ff161015610a0d5761094f6108c48260ff166002805490500385610ed290919063ffffffff16565b6003600060028560ff168154811015156108da57fe5b906000526020600020900160009054906101000a900473ffffffffffffffffffffffffffffffffffffffff1673ffffffffffffffffffffffffffffffffffffffff1673ffffffffffffffffffffffffffffffffffffffff16815260200190815260200160002054610eed90919063ffffffff16565b6003600060028460ff1681548110151561096557fe5b906000526020600020900160009054906101000a900473ffffffffffffffffffffffffffffffffffffffff1673ffffffffffffffffffffffffffffffffffffffff1673ffffffffffffffffffffffffffffffffffffffff168152602001908152602001600020819055506109fe6109ef8260ff166002805490500385610ed290919063ffffffff16565b84610eb990919063ffffffff16565b92508080600101915050610894565b505050505050565b60006005544210151515610a2857600080fd5b610a3133610c2f565b1515610a3c57600080fd5b610a45336103a9565b9050600081111515610a5357fe5b610aa581600460003373ffffffffffffffffffffffffffffffffffffffff1673ffffffffffffffffffffffffffffffffffffffff16815260200190815260200160002054610eed90919063ffffffff16565b600460003373ffffffffffffffffffffffffffffffffffffffff1673ffffffffffffffffffffffffffffffffffffffff16815260200190815260200160002081905550600160009054906101000a900473ffffffffffffffffffffffffffffffffffffffff1673ffffffffffffffffffffffffffffffffffffffff1663a9059cbb33836000604051602001526040518363ffffffff167c0100000000000000000000000000000000000000000000000000000000028152600401808373ffffffffffffffffffffffffffffffffffffffff1673ffffffffffffffffffffffffffffffffffffffff16815260200182815260200192505050602060405180830381600087803b1515610bb557600080fd5b6102c65a03f11515610bc657600080fd5b505050604051805190505050565b6000809054906101000a900473ffffffffffffffffffffffffffffffffffffffff1681565b60046020528060005260406000206000915090505481565b60055481565b60036020528060005260406000206000915090505481565b60008060008373ffffffffffffffffffffffffffffffffffffffff1614151515610c5857600080fd5b600090505b6002805490508160ff161015610cf4578273ffffffffffffffffffffffffffffffffffffffff1660028260ff16815481101515610c9657fe5b906000526020600020900160009054906101000a900473ffffffffffffffffffffffffffffffffffffffff1673ffffffffffffffffffffffffffffffffffffffff161415610ce75760019150610cf9565b8080600101915050610c5d565b600091505b50919050565b600281815481101515610d0e57fe5b90600052602060002090016000915054906101000a900473ffffffffffffffffffffffffffffffffffffffff1681565b6000809054906101000a900473ffffffffffffffffffffffffffffffffffffffff1673ffffffffffffffffffffffffffffffffffffffff163373ffffffffffffffffffffffffffffffffffffffff16141515610d9957600080fd5b600073ffffffffffffffffffffffffffffffffffffffff168173ffffffffffffffffffffffffffffffffffffffff1614151515610dd557600080fd5b8073ffffffffffffffffffffffffffffffffffffffff166000809054906101000a900473ffffffffffffffffffffffffffffffffffffffff1673ffffffffffffffffffffffffffffffffffffffff167f8be0079c531659141344cd1fd0a4f28419497f9722a3daafe3b4186f6b6457e060405160405180910390a3806000806101000a81548173ffffffffffffffffffffffffffffffffffffffff021916908373ffffffffffffffffffffffffffffffffffffffff16021790555050565b600160009054906101000a900473ffffffffffffffffffffffffffffffffffffffff1681565b6000828211151515610ec757fe5b818303905092915050565b6000808284811515610ee057fe5b0490508091505092915050565b6000808284019050838110151515610f0157fe5b8091505092915050565b815481835581811511610f3257818360005260206000209182019101610f319190610f37565b5b505050565b610f5991905b80821115610f55576000816000905550600101610f3d565b5090565b905600a165627a7a723058200074cf5da8d81cf75e8a5f318e33e9efec8a8e51a32f63f055b9870df96877980029",
  "source": "pragma solidity 0.4.19;\n\n\n/**\n * @title SafeMath\n * @dev Math operations with safety checks that throw on error\n */\nlibrary SafeMath {\n  function mul(uint256 a, uint256 b) internal pure returns (uint256) {\n    if (a == 0) {\n      return 0;\n    }\n    uint256 c = a * b;\n    assert(c / a == b);\n    return c;\n  }\n\n  function div(uint256 a, uint256 b) internal pure returns (uint256) {\n    // assert(b > 0); // Solidity automatically throws when dividing by 0\n    uint256 c = a / b;\n    // assert(a == b * c + a % b); // There is no case in which this doesn't hold\n    return c;\n  }\n\n  function sub(uint256 a, uint256 b) internal pure returns (uint256) {\n    assert(b <= a);\n    return a - b;\n  }\n\n  function add(uint256 a, uint256 b) internal pure returns (uint256) {\n    uint256 c = a + b;\n    assert(c >= a);\n    return c;\n  }\n}\n\n\n/**\n * @title Ownable\n * @dev The Ownable contract has an owner address, and provides basic authorization control\n * functions, this simplifies the implementation of \"user permissions\".\n */\ncontract Ownable {\n  address public owner;\n\n\n  event OwnershipTransferred(address indexed previousOwner, address indexed newOwner);\n\n\n  /**\n   * @dev The Ownable constructor sets the original `owner` of the contract to the sender\n   * account.\n   */\n  function Ownable() public {\n    owner = msg.sender;\n  }\n\n\n  /**\n   * @dev Throws if called by any account other than the owner.\n   */\n  modifier onlyOwner() {\n    require(msg.sender == owner);\n    _;\n  }\n\n\n  /**\n   * @dev Allows the current owner to transfer control of the contract to a newOwner.\n   * @param newOwner The address to transfer ownership to.\n   */\n  function transferOwnership(address newOwner) public onlyOwner {\n    require(newOwner != address(0));\n    OwnershipTransferred(owner, newOwner);\n    owner = newOwner;\n  }\n\n}\n\ninterface Token {\n    function transfer(address _to, uint256 _amount) public returns (bool success);\n    function balanceOf(address _owner) public view returns (uint256 balance);\n    function decimals()public view returns (uint8);\n}\n\n/**\n * @title TokenTimelock\n * @dev TokenTimelock is a token holder contract that will allow a\n * beneficiary to extract the tokens after a given release time\n */\ncontract TokenTimelock is Ownable {\n    using SafeMath for uint256;\n\n  // ERC20 basic token contract being held\n  Token public token;\n\n  // beneficiary of tokens after they are released\n  address[] public beneficiaries;\n  \n  //vesting percentage for each beneficiary\n  mapping(address=>uint256)public tokensVested;\n  \n  //tokens released by each beneficiary\n  mapping (address => uint256) public released;\n  \n  \n  // timestamp when token release is enabled\n  uint256 public releaseTime;\n\n    /**\n    *@dev constructor method- It will set all the required configuration parameters\n    * @param _token Address of the token to be used\n    * @param _beneficiaries List of beneficiaries\n    * @param _tokensVested Tokens to be vested for each beneficiary\n    * @param _releaseTime Time after which tokens will be released\n    */\n  function TokenTimelock(address _token, address[] _beneficiaries, uint256[]_tokensVested, uint256 _releaseTime) public {\n      \n    require(_releaseTime > now);\n    require(_token != 0x0);\n    require(_beneficiaries.length == _tokensVested.length);\n    \n    token = Token(_token);\n    \n    beneficiaries = _beneficiaries;\n    \n    for(uint8 i=0;i<beneficiaries.length;i++) {\n        tokensVested[beneficiaries[i]] = _tokensVested[i];\n    }\n    \n    releaseTime = _releaseTime;\n  }\n\n  /**\n   * @dev function using which valid beneficiaries can release their tokens after release time has elapsed\n   * \n   */\n  function release() public {\n      \n    require(now >= releaseTime);\n    require(validBeneficiary(msg.sender));\n\n    uint256 amount = releasableAmount(msg.sender);\n    \n    assert(amount > 0);\n    \n    released[msg.sender] = released[msg.sender].add(amount);\n    \n    token.transfer(msg.sender, amount);\n  }\n  \n  /**\n  * @dev Method to check whether the beneficiary is a valid beneficiary or not\n  * @param _beneficiary The address of the beneficiary whose validity has to be checked\n  */\n  function validBeneficiary(address _beneficiary)public view returns (bool) {\n      \n      require(_beneficiary != 0x0);\n      \n      for(uint8 i=0;i<beneficiaries.length;i++){\n          if(beneficiaries[i] == _beneficiary){\n              return true;\n          }\n          \n      }\n      return false;\n  }\n  \n   /**\n   * @dev Method to allow owner of the contract to remove any beneficiary from the list\n   * It will remove beneficiary from the list and divide his/her tokens to other beneficiaries\n   * @param _beneficiary The address of beneficiary to be removed\n   * \n   */\n  function revokeBeneficiary(address _beneficiary) onlyOwner public {\n        \n        require(_beneficiary != 0x0);\n        require(validBeneficiary(_beneficiary));\n        \n        uint256 tokensVestedForAddress = tokensVested[_beneficiary];\n        uint256 tokensReleasedToAddress = released[_beneficiary];\n        uint256 remainingAmount = tokensVestedForAddress.sub(tokensReleasedToAddress);\n        \n        tokensVested[_beneficiary] = 0;\n        \n        for(uint8 i=0;i<beneficiaries.length;i++){\n            if(beneficiaries[i] == _beneficiary){\n                beneficiaries[i] = beneficiaries[beneficiaries.length -1];\n                delete beneficiaries[beneficiaries.length -1];\n                beneficiaries.length --;\n            }\n        }\n        \n        for(uint8 j = 0;j<beneficiaries.length;j++) {\n            tokensVested[beneficiaries[j]] = tokensVested[beneficiaries[j]].add(remainingAmount.div(beneficiaries.length - j));\n            remainingAmount = remainingAmount.sub(remainingAmount.div(beneficiaries.length - j));\n        }\n\n        \n  }\n  \n  /**\n  * @dev Method to check releasable token for the beneficiary\n  * @param _beneficiary The address of the beneficiary whose balance has to be checked\n  */\n  \n  function releasableAmount(address _beneficiary)public view returns(uint256) {\n      \n      require(_beneficiary != 0x0);\n\n      require(now >= releaseTime);\n\n      uint256 currentBalance = token.balanceOf(this);\n      \n      uint256 tokensVestedForAddress = tokensVested[_beneficiary];\n      \n      uint256 tokensReleasedToAddress = released[_beneficiary];\n      \n      assert(tokensVestedForAddress.sub(tokensReleasedToAddress)<=currentBalance);\n      \n      return tokensVestedForAddress.sub(tokensReleasedToAddress);\n      \n      \n  }\n}\n",
  "sourcePath": "/home/sameep/freelancing-projects/drone/contracts/TokenTimeLock.sol",
  "compiler": {
    "name": "solc",
    "version": "0.4.19+commit.c4cbbb05.Emscripten.clang"
  },
  "schemaVersion": "1.0.1",
  "updatedAt": "2018-03-19T08:23:48.591Z"
}